{
  "_format": "hh-sol-artifact-1",
  "contractName": "SleepStaker",
  "sourceName": "contracts/SleepStaker.sol",
  "abi": [
    {
      "inputs": [],
      "stateMutability": "nonpayable",
      "type": "constructor"
    },
    {
      "anonymous": false,
      "inputs": [
        {
          "indexed": false,
          "internalType": "uint256",
          "name": "id",
          "type": "uint256"
        },
        {
          "indexed": false,
          "internalType": "uint256",
          "name": "startDate",
          "type": "uint256"
        },
        {
          "indexed": false,
          "internalType": "uint256",
          "name": "endDate",
          "type": "uint256"
        },
        {
          "indexed": false,
          "internalType": "uint32",
          "name": "sleepHours",
          "type": "uint32"
        },
        {
          "indexed": false,
          "internalType": "uint256",
          "name": "stakeAmount",
          "type": "uint256"
        }
      ],
      "name": "ChallengeCreated",
      "type": "event"
    },
    {
      "anonymous": false,
      "inputs": [
        {
          "indexed": false,
          "internalType": "uint256",
          "name": "challengeId",
          "type": "uint256"
        },
        {
          "indexed": false,
          "internalType": "address",
          "name": "challenger",
          "type": "address"
        }
      ],
      "name": "ChallengerJoined",
      "type": "event"
    },
    {
      "inputs": [
        {
          "internalType": "uint256",
          "name": "_sleepRecordHours",
          "type": "uint256"
        }
      ],
      "name": "addSleepData",
      "outputs": [],
      "stateMutability": "nonpayable",
      "type": "function"
    },
    {
      "inputs": [
        {
          "internalType": "uint256",
          "name": "",
          "type": "uint256"
        }
      ],
      "name": "challengeCompleted",
      "outputs": [
        {
          "internalType": "bool",
          "name": "",
          "type": "bool"
        }
      ],
      "stateMutability": "view",
      "type": "function"
    },
    {
      "inputs": [
        {
          "internalType": "uint256",
          "name": "",
          "type": "uint256"
        },
        {
          "internalType": "uint256",
          "name": "",
          "type": "uint256"
        }
      ],
      "name": "challengeWinners",
      "outputs": [
        {
          "internalType": "address",
          "name": "",
          "type": "address"
        }
      ],
      "stateMutability": "view",
      "type": "function"
    },
    {
      "inputs": [
        {
          "internalType": "uint256",
          "name": "",
          "type": "uint256"
        },
        {
          "internalType": "uint256",
          "name": "",
          "type": "uint256"
        }
      ],
      "name": "challengers",
      "outputs": [
        {
          "internalType": "address",
          "name": "",
          "type": "address"
        }
      ],
      "stateMutability": "view",
      "type": "function"
    },
    {
      "inputs": [
        {
          "internalType": "uint256",
          "name": "",
          "type": "uint256"
        }
      ],
      "name": "challenges",
      "outputs": [
        {
          "internalType": "uint256",
          "name": "startDate",
          "type": "uint256"
        },
        {
          "internalType": "uint256",
          "name": "endDate",
          "type": "uint256"
        },
        {
          "internalType": "uint32",
          "name": "sleepHours",
          "type": "uint32"
        },
        {
          "internalType": "uint256",
          "name": "stakeAmount",
          "type": "uint256"
        },
        {
          "internalType": "uint256",
          "name": "amountStaked",
          "type": "uint256"
        },
        {
          "internalType": "bool",
          "name": "winnersIdentified",
          "type": "bool"
        }
      ],
      "stateMutability": "view",
      "type": "function"
    },
    {
      "inputs": [],
      "name": "checkContractBalance",
      "outputs": [
        {
          "internalType": "uint256",
          "name": "",
          "type": "uint256"
        }
      ],
      "stateMutability": "view",
      "type": "function"
    },
    {
      "inputs": [
        {
          "internalType": "uint256",
          "name": "_challengeId",
          "type": "uint256"
        }
      ],
      "name": "checkDataUpload",
      "outputs": [
        {
          "internalType": "bool",
          "name": "",
          "type": "bool"
        }
      ],
      "stateMutability": "view",
      "type": "function"
    },
    {
      "inputs": [
        {
          "internalType": "uint256",
          "name": "_challengeId",
          "type": "uint256"
        }
      ],
      "name": "checkFinished",
      "outputs": [],
      "stateMutability": "nonpayable",
      "type": "function"
    },
    {
      "inputs": [
        {
          "internalType": "uint256",
          "name": "_startDate",
          "type": "uint256"
        },
        {
          "internalType": "uint256",
          "name": "_endDate",
          "type": "uint256"
        },
        {
          "internalType": "uint32",
          "name": "_sleepHours",
          "type": "uint32"
        },
        {
          "internalType": "uint256",
          "name": "_stakeAmount",
          "type": "uint256"
        }
      ],
      "name": "createChallenge",
      "outputs": [
        {
          "internalType": "uint256",
          "name": "",
          "type": "uint256"
        }
      ],
      "stateMutability": "nonpayable",
      "type": "function"
    },
    {
      "inputs": [
        {
          "internalType": "address",
          "name": "",
          "type": "address"
        }
      ],
      "name": "hoursSlept",
      "outputs": [
        {
          "internalType": "uint256",
          "name": "",
          "type": "uint256"
        }
      ],
      "stateMutability": "view",
      "type": "function"
    },
    {
      "inputs": [
        {
          "internalType": "uint256",
          "name": "_challengeId",
          "type": "uint256"
        }
      ],
      "name": "identifyChallengeWinners",
      "outputs": [],
      "stateMutability": "nonpayable",
      "type": "function"
    },
    {
      "inputs": [
        {
          "internalType": "uint256",
          "name": "_challengeId",
          "type": "uint256"
        }
      ],
      "name": "joinChallenge",
      "outputs": [],
      "stateMutability": "payable",
      "type": "function"
    },
    {
      "inputs": [
        {
          "internalType": "uint256",
          "name": "_challengeId",
          "type": "uint256"
        }
      ],
      "name": "viewChallenge",
      "outputs": [
        {
          "internalType": "uint256",
          "name": "",
          "type": "uint256"
        },
        {
          "internalType": "uint256",
          "name": "",
          "type": "uint256"
        },
        {
          "internalType": "uint256",
          "name": "",
          "type": "uint256"
        },
        {
          "internalType": "uint256",
          "name": "",
          "type": "uint256"
        }
      ],
      "stateMutability": "view",
      "type": "function"
    },
    {
      "inputs": [
        {
          "internalType": "uint256",
          "name": "_challengeId",
          "type": "uint256"
        }
      ],
      "name": "viewChallengers",
      "outputs": [
        {
          "internalType": "address[]",
          "name": "",
          "type": "address[]"
        }
      ],
      "stateMutability": "view",
      "type": "function"
    },
    {
      "inputs": [
        {
          "internalType": "uint256",
          "name": "_challengeId",
          "type": "uint256"
        }
      ],
      "name": "withdraw",
      "outputs": [],
      "stateMutability": "nonpayable",
      "type": "function"
    }
  ],
  "bytecode": "0x608060405234801561001057600080fd5b50611a4a806100206000396000f3fe6080604052600436106100e85760003560e01c80637460ddee1161008a578063bc7e0d4511610059578063bc7e0d4514610346578063d277df9d1461036f578063e448ee26146103ac578063f1ef3546146103c8576100e8565b80637460ddee1461025e578063863808811461029b5780638f1d3776146102c4578063a7d9ab6514610306576100e8565b806350312c9e116100c657806350312c9e1461017c5780635b2c22cd146101a75780636410a06e146101e45780637243ec2c14610221576100e8565b8063256b58ef146100ed5780632e1a7d4d14610116578063481c46431461013f575b600080fd5b3480156100f957600080fd5b50610114600480360381019061010f919061124b565b610405565b005b34801561012257600080fd5b5061013d6004803603810190610138919061124b565b61044c565b005b34801561014b57600080fd5b506101666004803603810190610161919061124b565b61066f565b60405161017391906114f8565b60405180910390f35b34801561018857600080fd5b5061019161068f565b60405161019e91906115b3565b60405180910390f35b3480156101b357600080fd5b506101ce60048036038101906101c991906112b0565b61069c565b6040516101db91906115b3565b60405180910390f35b3480156101f057600080fd5b5061020b6004803603810190610206919061124b565b6107d1565b60405161021891906114d6565b60405180910390f35b34801561022d57600080fd5b506102486004803603810190610243919061124b565b610878565b60405161025591906114f8565b60405180910390f35b34801561026a57600080fd5b5061028560048036038101906102809190611274565b6108a2565b60405161029291906114bb565b60405180910390f35b3480156102a757600080fd5b506102c260048036038101906102bd919061124b565b6108f0565b005b3480156102d057600080fd5b506102eb60048036038101906102e6919061124b565b610c98565b6040516102fd9695949392919061168f565b60405180910390f35b34801561031257600080fd5b5061032d6004803603810190610328919061124b565b610d01565b60405161033d94939291906115f7565b60405180910390f35b34801561035257600080fd5b5061036d6004803603810190610368919061124b565b610dfa565b005b34801561037b57600080fd5b5061039660048036038101906103919190611274565b610f9b565b6040516103a391906114bb565b60405180910390f35b6103c660048036038101906103c1919061124b565b610fe9565b005b3480156103d457600080fd5b506103ef60048036038101906103ea9190611222565b61118d565b6040516103fc91906115b3565b60405180910390f35b80600260003373ffffffffffffffffffffffffffffffffffffffff1673ffffffffffffffffffffffffffffffffffffffff1681526020019081526020016000208190555050565b600115156003600083815260200190815260200160002060009054906101000a900460ff161515146104b3576040517f08c379a00000000000000000000000000000000000000000000000000000000081526004016104aa90611553565b60405180910390fd5b6000600460008381526020019081526020016000208054905090506000816000848154811061050b577f4e487b7100000000000000000000000000000000000000000000000000000000600052603260045260246000fd5b906000526020600020906006020160040154610527919061179b565b905060005b82811015610669576000600460008681526020019081526020016000208281548110610581577f4e487b7100000000000000000000000000000000000000000000000000000000600052603260045260246000fd5b9060005260206000200160009054906101000a900473ffffffffffffffffffffffffffffffffffffffff1673ffffffffffffffffffffffffffffffffffffffff16836040516105cf906114a6565b60006040518083038185875af1925050503d806000811461060c576040519150601f19603f3d011682016040523d82523d6000602084013e610611565b606091505b5050905080610655576040517f08c379a000000000000000000000000000000000000000000000000000000000815260040161064c90611533565b60405180910390fd5b50808061066190611858565b91505061052c565b50505050565b60036020528060005260406000206000915054906101000a900460ff1681565b6000804790508091505090565b6000806040518060c001604052808781526020018681526020018563ffffffff16815260200184815260200160008152602001600015158152509080600181540180825580915050600190039060005260206000209060060201600090919091909150600082015181600001556020820151816001015560408201518160020160006101000a81548163ffffffff021916908363ffffffff160217905550606082015181600301556080820151816004015560a08201518160050160006101000a81548160ff02191690831515021790555050506000600160008054905061078491906117cc565b90507f2d407b9b17efcebe1d1ec83fc70f6e52bbf5e8102b03a18044c49dafd2b9b8ed81878787876040516107bd95949392919061163c565b60405180910390a180915050949350505050565b606060006001600084815260200190815260200160002080548060200260200160405190810160405280929190818152602001828054801561086857602002820191906000526020600020905b8160009054906101000a900473ffffffffffffffffffffffffffffffffffffffff1673ffffffffffffffffffffffffffffffffffffffff168152602001906001019080831161081e575b5050505050905080915050919050565b60006003600083815260200190815260200160002060009054906101000a900460ff169050919050565b600460205281600052604060002081815481106108be57600080fd5b906000526020600020016000915091509054906101000a900473ffffffffffffffffffffffffffffffffffffffff1681565b600115156003600083815260200190815260200160002060009054906101000a900460ff16151514610957576040517f08c379a000000000000000000000000000000000000000000000000000000000815260040161094e90611573565b60405180910390fd5b6000151560008281548110610995577f4e487b7100000000000000000000000000000000000000000000000000000000600052603260045260246000fd5b906000526020600020906006020160050160009054906101000a900460ff161515146109f6576040517f08c379a00000000000000000000000000000000000000000000000000000000081526004016109ed90611513565b60405180910390fd5b60005b6001600083815260200190815260200160002080549050811015610c305760008281548110610a51577f4e487b7100000000000000000000000000000000000000000000000000000000600052603260045260246000fd5b906000526020600020906006020160020160009054906101000a900463ffffffff1663ffffffff1660026000600160008681526020019081526020016000208481548110610ac8577f4e487b7100000000000000000000000000000000000000000000000000000000600052603260045260246000fd5b9060005260206000200160009054906101000a900473ffffffffffffffffffffffffffffffffffffffff1673ffffffffffffffffffffffffffffffffffffffff1673ffffffffffffffffffffffffffffffffffffffff1681526020019081526020016000205410610c1d5760046000838152602001908152602001600020600160008481526020019081526020016000208281548110610b91577f4e487b7100000000000000000000000000000000000000000000000000000000600052603260045260246000fd5b9060005260206000200160009054906101000a900473ffffffffffffffffffffffffffffffffffffffff169080600181540180825580915050600190039060005260206000200160009091909190916101000a81548173ffffffffffffffffffffffffffffffffffffffff021916908373ffffffffffffffffffffffffffffffffffffffff1602179055505b8080610c2890611858565b9150506109f9565b50600160008281548110610c6d577f4e487b7100000000000000000000000000000000000000000000000000000000600052603260045260246000fd5b906000526020600020906006020160050160006101000a81548160ff02191690831515021790555050565b60008181548110610ca857600080fd5b90600052602060002090600602016000915090508060000154908060010154908060020160009054906101000a900463ffffffff16908060030154908060040154908060050160009054906101000a900460ff16905086565b600080600080610d0f6111a5565b60008681548110610d49577f4e487b7100000000000000000000000000000000000000000000000000000000600052603260045260246000fd5b90600052602060002090600602016040518060c001604052908160008201548152602001600182015481526020016002820160009054906101000a900463ffffffff1663ffffffff1663ffffffff16815260200160038201548152602001600482015481526020016005820160009054906101000a900460ff161515151581525050905080600001518160200151826040015183606001518163ffffffff1691509450945094509450509193509193565b600060016000838152602001908152602001600020805480602002602001604051908101604052809291908181526020018280548015610e8f57602002820191906000526020600020905b8160009054906101000a900473ffffffffffffffffffffffffffffffffffffffff1673ffffffffffffffffffffffffffffffffffffffff1681526020019060010190808311610e45575b5050505050905060016003600084815260200190815260200160002060006101000a81548160ff02191690831515021790555060005b8151811015610f9657600060026000848481518110610f0d577f4e487b7100000000000000000000000000000000000000000000000000000000600052603260045260246000fd5b602002602001015173ffffffffffffffffffffffffffffffffffffffff1673ffffffffffffffffffffffffffffffffffffffff168152602001908152602001600020541415610f835760006003600085815260200190815260200160002060006101000a81548160ff0219169083151502179055505b8080610f8e90611858565b915050610ec5565b505050565b60016020528160005260406000208181548110610fb757600080fd5b906000526020600020016000915091509054906101000a900473ffffffffffffffffffffffffffffffffffffffff1681565b6000808281548110611024577f4e487b7100000000000000000000000000000000000000000000000000000000600052603260045260246000fd5b906000526020600020906006020160030154905080341461107a576040517f08c379a000000000000000000000000000000000000000000000000000000000815260040161107190611593565b60405180910390fd5b80600083815481106110b5577f4e487b7100000000000000000000000000000000000000000000000000000000600052603260045260246000fd5b906000526020600020906006020160040160008282546110d59190611745565b9250508190555060016000838152602001908152602001600020339080600181540180825580915050600190039060005260206000200160009091909190916101000a81548173ffffffffffffffffffffffffffffffffffffffff021916908373ffffffffffffffffffffffffffffffffffffffff1602179055507f37e55711e00369d3f8e4306fff895c995d59a75bb3e392a55ce00f687e6020f382336040516111819291906115ce565b60405180910390a15050565b60026020528060005260406000206000915090505481565b6040518060c001604052806000815260200160008152602001600063ffffffff16815260200160008152602001600081526020016000151581525090565b6000813590506111f2816119cf565b92915050565b600081359050611207816119e6565b92915050565b60008135905061121c816119fd565b92915050565b60006020828403121561123457600080fd5b6000611242848285016111e3565b91505092915050565b60006020828403121561125d57600080fd5b600061126b848285016111f8565b91505092915050565b6000806040838503121561128757600080fd5b6000611295858286016111f8565b92505060206112a6858286016111f8565b9150509250929050565b600080600080608085870312156112c657600080fd5b60006112d4878288016111f8565b94505060206112e5878288016111f8565b93505060406112f68782880161120d565b9250506060611307878288016111f8565b91505092959194509250565b600061131f838361132b565b60208301905092915050565b61133481611800565b82525050565b61134381611800565b82525050565b600061135482611700565b61135e8185611718565b9350611369836116f0565b8060005b8381101561139a5781516113818882611313565b975061138c8361170b565b92505060018101905061136d565b5085935050505092915050565b6113b081611812565b82525050565b60006113c3601783611734565b91506113ce826118ff565b602082019050919050565b60006113e6601983611734565b91506113f182611928565b602082019050919050565b6000611409600083611729565b915061141482611951565b600082019050919050565b600061142c601b83611734565b915061143782611954565b602082019050919050565b600061144f601983611734565b915061145a8261197d565b602082019050919050565b6000611472601083611734565b915061147d826119a6565b602082019050919050565b6114918161183e565b82525050565b6114a081611848565b82525050565b60006114b1826113fc565b9150819050919050565b60006020820190506114d0600083018461133a565b92915050565b600060208201905081810360008301526114f08184611349565b905092915050565b600060208201905061150d60008301846113a7565b92915050565b6000602082019050818103600083015261152c816113b6565b9050919050565b6000602082019050818103600083015261154c816113d9565b9050919050565b6000602082019050818103600083015261156c8161141f565b9050919050565b6000602082019050818103600083015261158c81611442565b9050919050565b600060208201905081810360008301526115ac81611465565b9050919050565b60006020820190506115c86000830184611488565b92915050565b60006040820190506115e36000830185611488565b6115f0602083018461133a565b9392505050565b600060808201905061160c6000830187611488565b6116196020830186611488565b6116266040830185611488565b6116336060830184611488565b95945050505050565b600060a0820190506116516000830188611488565b61165e6020830187611488565b61166b6040830186611488565b6116786060830185611497565b6116856080830184611488565b9695505050505050565b600060c0820190506116a46000830189611488565b6116b16020830188611488565b6116be6040830187611497565b6116cb6060830186611488565b6116d86080830185611488565b6116e560a08301846113a7565b979650505050505050565b6000819050602082019050919050565b600081519050919050565b6000602082019050919050565b600082825260208201905092915050565b600081905092915050565b600082825260208201905092915050565b60006117508261183e565b915061175b8361183e565b9250827fffffffffffffffffffffffffffffffffffffffffffffffffffffffffffffffff038211156117905761178f6118a1565b5b828201905092915050565b60006117a68261183e565b91506117b18361183e565b9250826117c1576117c06118d0565b5b828204905092915050565b60006117d78261183e565b91506117e28361183e565b9250828210156117f5576117f46118a1565b5b828203905092915050565b600061180b8261181e565b9050919050565b60008115159050919050565b600073ffffffffffffffffffffffffffffffffffffffff82169050919050565b6000819050919050565b600063ffffffff82169050919050565b60006118638261183e565b91507fffffffffffffffffffffffffffffffffffffffffffffffffffffffffffffffff821415611896576118956118a1565b5b600182019050919050565b7f4e487b7100000000000000000000000000000000000000000000000000000000600052601160045260246000fd5b7f4e487b7100000000000000000000000000000000000000000000000000000000600052601260045260246000fd5b7f57696e6e65727320616c72656164792064656369646564000000000000000000600082015250565b7f4661696c656420746f2073656e6420746f206164647265737300000000000000600082015250565b50565b7f4368616c6c656e6765206e6f7420636f6d706c65746564207965740000000000600082015250565b7f4e6f7420616c6c20646174612075706c6f616465642079657400000000000000600082015250565b7f496e636f727265637420616d6f756e7400000000000000000000000000000000600082015250565b6119d881611800565b81146119e357600080fd5b50565b6119ef8161183e565b81146119fa57600080fd5b50565b611a0681611848565b8114611a1157600080fd5b5056fea26469706673582212204bf691b3958d9514dfddd8ba63b6cdb806a85d492a9e112ee7884e48fa249bc664736f6c63430008040033",
  "linkReferences": {},
  "deployedLinkReferences": {}
}